:100000000C9442020C9489020C9489020C9489028B
:100010000C9489020C9489020C9489020C94890234
:100020000C9489020C9489020C94A52D0C94792EC1
:100030000C9469240C9489020C9489020C94890212
:100040000C9489020C9489020C9489020C94890204
:100050000C9489020C94DC240C9489020C9489027F
:100060000C9489020C9489020C9489020C948902E4
:100070000C9489020C9489020C9489020C948902D4
:100080000C9489020C9489020C9489020C948902C4
:100090000C9489020C9489020C9489020C948902B4
:1000A0000C9489020C9489020C9489022900140092
:1000B0001A000800150017001C0018000C001200A0
:1000C00013002A002B0004001600070009000A0094
:1000D0000B000D000E000F0033003400E1001D0086
:1000E0001B00060019000500110010003600370043
:1000F00038002800C35CE000E200E3002C0002515D
:1001000003532C005000510052004F0035021E02D4
:100110001F022002210222022302240225022602BB
:1001200027022A004C003A003B003C003D003E0004
:100130003F002D022E022F0230023102010040004A
:1001400041004200430044004500320264024A007C
:100150004D000100005C01000100010001000100F0
:1001600001000100AB00AA00A900AE0035001E008E
:100170001F0020002100220023002400250026006B
:1001800027002A004C003A003B003C003D003E00A6
:100190003F002D002E002F003000310001004000F4
:1001A00041004200430044004500320064004B001F
:1001B0004E000100C45C01000100010001000100CB
:1001C00001000100AB00AA00A900AE004E5C4F5C2C
:1001D000505C515C525C535C545C555C565C575CA3
:1001E000585C595C495C4A5C4B5C4C5C4D5C4E5CB9
:1001F0004F5C505C515C525C535C545C445C455CAD
:10020000465C475C485C495C4A5C4B5C4C5C4D5CC2
:100210004E5C4F5C3F5C405C415C425C435C445CD8
:10022000455C465C3B5C815C825C035300010101E0
:1002300001010101010102020202020202020203A3
:100240000303030303030304040404040404050573
:100250000505050606060606070707070708080836
:1002600008090909090A0A0A0B0B0B0C0C0C0D0DE5
:100270000D0E0E0E0F0F0F1010111111121213137D
:100280001414151516161717181819191A1A1B1BF6
:100290001C1D1D1E1E1F2020212222232424252652
:1002A00026272829292A2B2C2D2D2E2F303132328A
:1002B000333435363738393A3B3C3D3E3F40414296
:1002C000434445464748494A4C4D4E4F505153547C
:1002D000555658595A5B5D5E5F6162646566686930
:1002E0006B6C6D6F7072737577787A7B7D7E8082B0
:1002F000838587888A8C8E8F91939596989A9C9EF9
:10030000A0A2A3A5A7A9ABADAFB1B3B5B7BABCBE08
:10031000C0C2C4C6C9CBCDCFD1D4D6D8DBDDDFE2D5
:10032000E4E7E9EBEEF0F3F5F8FAFDFF140354000F
:100330006500630068006E0069006B002D004F00CF
:100340000000180342006F00610072006400730037
:100350006F0075007200630065000000040309046B
:1003600009029F00040100A0FA0904000001030132
:100370000100092111010001224000070581030845
:10038000000A090401000103000000092111010015
:10039000012232000705820320000A080B02020135
:1003A000010000090402000001010000092401000D
:1003B00001090001030904030002010300000724EE
:1003C000010001410006240201010006240202028C
:1003D00000092403010301020100092403020401AE
:1003E0000101000905040240000500000525010186
:1003F00001090583024000050000052501010312E3
:1004000001000200000008734279000100010200AF
:100410000105010980A101850319012AB700150111
:1004200026B700950175108100C0050C0901A101D6
:10043000850419012AA002150126A0029501751054
:100440008100C005010906A101050719E029E7158A
:100450000025019508750181029501750881010546
:1004600007190029FF150026FF0095067508810071
:100470000508190129059505750191029501750376
:100480009101C00011241FBECFEFDAE0DEBFCDBF67
:1004900004B603FE27C08091F4059091F505A09164
:1004A000F605B091F7058730904BA740B04BD1F4DB
:1004B0001092F4051092F5051092F6051092F705CA
:1004C00014BE84B7877F84BF0FB6F894A895809137
:1004D0006000886180936000109260000FBEE0E0D1
:1004E000F8E3099512E0A0E0B1E0E2E7F3E602C02C
:1004F00005900D92A43FB107D9F725E0A4EFB2E033
:1005000001C01D92A43FB207E1F70E94D2120C94E1
:1005100077310C940000BF92CF92DF92EF92FF925E
:100520000F931F93CF93DF936B01142FB22E7C0197
:10053000D0E0C0E0CC15DD0554F0DF91CF911F91E4
:100540000F91FF90EF90DF90CF90BF900895202FF4
:100550004B2D612FF701819191917F010E9422190A
:100560002196E8CF0F931F936091150370911603A6
:1005700080911703909118030E94E303833048F49D
:10058000882361F040E060E080E01F910F910C94BF
:10059000311E833031F11F910F91089540E060E0EA
:1005A00080E50E94311E6091E2017091E30100E557
:1005B00010E028E230E050E040E088EE91E00E9458
:1005C0008B0220E044E660E082E390E00E94221982
:1005D00020E044E660E085E390E01F910F910C94E9
:1005E000221940E060E080E00E94311E6091E60147
:1005F0007091E70106E410E026E430E046E450E0C4
:1006000088E292E00E948B026091E4017091E50122
:1006100010E000E024E630E050E040E084E292E0C8
:100620000E948B0220E040E064E689E390E0D5CFB1
:1006300081E0089581E008950C941A0308950C94C4
:100640001E031F93CF93DF9300D000D00F92CDB73E
:10065000DEB749835A836B833091F60289819A8190
:1006600031111DC06623B9F02223A9F00E9483092D
:10067000182F682F89819A810E942F0969817A81B8
:10068000812F0F900F900F900F900F90DF91CF91CF
:100690001F910C9438100E945B09182FEFCF0E9415
:1006A000830969817A81EDCFFC01262F4081518138
:1006B0006281738184810C94210381E00895CF933A
:1006C000DF93EC0160E00E945403BE01DF91CF9103
:1006D0000C941F030E9444110E9437040E947E1F45
:1006E0000C9469110C946C1108950E94D8070E9413
:1006F00074032FEF84E39CE0215080409040E1F7A9
:1007000000C000000C9400250F931F93CF93DF933C
:100710008C0161E00E945403EC01B8010E941C03AB
:10072000882309F441C0B801CE010E940D1388232B
:10073000D9F1B801CE010E94CE218823A9F1B801D8
:10074000CE010E942022882379F1B801CE010E94B7
:100750004A23882349F1B801CE010E949C208823B6
:1007600019F1F8018281882361F0CB35FDE5DF07BF
:1007700021F170F4C115ECE5DE07A1F0CF3DDC45B9
:10078000C9F0C801DF91CF911F910F910C9418030C
:10079000CC358DE5D807A1F0CD35DD4591F70E9428
:1007A000E80CEFCF0E94750380E0DF91CF911F919D
:1007B0000F9108950E94520EF7CF0E94F10CE1CFE5
:1007C0000E94F40CDECFCF92DF92EF92FF926C0189
:1007D000EE24FF2420E0C114D104E104F10419F057
:1007E000C701B60120E1C72ED82EE92EFF24C1147F
:1007F000D104E104F10419F0285FC701B6016B01CF
:100800007C0154E0F694E794D794C7945A95D1F7B5
:10081000C114D104E104F10419F02C5FC701B60141
:100820006B017C0142E0F694E794D794C7944A9513
:10083000D1F7C114D104E104F10419F02E5FC7010E
:10084000B6019695879577956795672B682B692BE9
:1008500009F02F5F822FFF90EF90DF90CF900895E7
:1008600008950C94300481E008950C9433040895A5
:10087000CF93C82F0E9431048C2FCF910C94350454
:10088000CF93DF93CDB7DEB72B970FB6F894DEBFCB
:100890000FBECDBF4F83588769877A878B876111D9
:1008A0000E94170D1E821D8285E0FE013796DE0133
:1008B000119601900D928A95E1F78C819D81892B8B
:1008C00089F449815A816B817C818D819E810E944E
:1008D000170C2B960FB6F894DEBF0FBECDBFDF917D
:1008E000CF91089589819A8189238F3F51F3CE0159
:1008F00001960E945D038111E4CFEBCFFC01808162
:1009000091810C94C509CF93C82F882309F483C023
:100910008238C1F40E94792381FD7DC089E30E9461
:10092000B10C0E943A0D2FEF81EE94E021508040EF
:100930009040E1F700C0000089E30E94B80CCF911D
:100940000C943A0D8338A1F40E94792380FD63C092
:1009500083E50E94B10C0E943A0D2FEF81EE94E0E6
:10096000215080409040E1F700C0000083E5E5CFD2
:100970008438A1F40E94792382FD4DC087E40E944F
:10098000B10C0E943A0D2FEF81EE94E0215080408F
:100990009040E1F700C0000087E4CFCF8CEF8C0FD0
:1009A000813A90F46C2F80914002909141020E9414
:1009B000CE23882329F08C2F0E94B80C0E943A0D78
:1009C0008C2F0E94B10CBBCF80E28C0F883048F492
:1009D000C77081E001C0880FCA95EAF70E94FA0C3F
:1009E000AECFEBE5EC0FE33040F4F0E0E057FD4F25
:1009F000808190E0CF910C949023C85AC73158F46D
:100A0000EC2FF0E0EE0FFF1FEE59FD4F808191813A
:100A1000CF910C94A623CF910895882309F44BC05D
:100A2000823871F40E94792381FF45C089E30E94D6
:100A3000B10C0E943A0D89E30E94B80C0C943A0D57
:100A4000833859F40E94792380FF35C083E50E94E2
:100A5000B10C0E943A0D83E5EFCF843859F40E941F
:100A6000792382FF28C087E40E94B10C0E943A0DCE
:100A700087E4E2CF9CEF980F913AF0F290E2980F62
:100A8000983050F4877091E001C0990F8A95EAF789
:100A9000892F0E94000DD2CF9BE5980F933020F450
:100AA00090E080E00C949023885A873120F490E005
:100AB00080E00C94A62308951F93CF93DF93182F03
:100AC000EB010E948304209731F4812FDF91CF91B5
:100AD0001F910C940D058FE99FE00197F1F700C07D
:100AE00000002197F0CF70E060E0893311F460E5F9
:100AF00070E00C945C05882321F00E94FA0C0C94A1
:100B00003A0D0895882321F00E94000D0C943A0DAF
:100B10000895BF92CF92DF92EF92FF920F931F93AF
:100B2000CF93DF936C01D62FC72FFC011281058173
:100B300002950F700E94CF0CE82E8823A1F0E12EC1
:100B4000112389F08C2F807F803429F080E28D0F73
:100B5000E12C883040F082E00E948B0D0E94CF0C87
:100B600091E0E82EE926BC2EB2949FE0B922FBE08A
:100B7000FB1598F1EB2DF0E0E758FE4C0C94533048
:100B80000C2F0F70C07F11F00295007F1123A9F088
:100B9000002359F080E28D0F883010F0D11109C088
:100BA000802F0E94FA0C0E943A0D8D2F0E94830420
:100BB00014C0802F0E940A0DF6CF8D2F0E940D05C4
:100BC000002359F080E28D0F883010F0D1112CC035
:100BD000802F0E94000D0E943A0D2B2D2850330BC0
:100BE0002430310520F40E9479230E943804EE203D
:100BF00009F483C10E94CB0C80FD7FC1F6011282F3
:100C00000E94C50C0E949308C6010E949E070E9484
:100C1000C50CDF91CF911F910F91FF90EF90DF9066
:100C2000CF90BF900C94B408802F0E94100DD3CFAA
:100C30002C2F2F70F22EC07FC03219F0F29480EF6B
:100C4000F822DD2369F0D13049F1112391F100231D
:100C500051F1F601858180FFA8CF8F70858323C075
:100C6000112381F0011106C00E941D0D8F290E94E1
:100C70007B05B3CF0130C1F70E941D0D8F290E9463
:100C8000230DABCF011106C00E94300D8F2D0E94A5
:100C90008205A3CF013009F4A0CFF6CF112329F0AC
:100CA000063008F09ACF8F2DE2CF053008F095CFAF
:100CB000EDCF002359F3D93349F4FFEF27EE33E0AA
:100CC000F15020403040E1F700C000008D2F0E941D
:100CD0000D0583CF8C2F86958695837069F08130C2
:100CE00009F07BCF8D2F9C2F9370111102C090E0E3
:100CF00080E00E94A62371CF8D2F9C2F937011113D
:100D000002C090E080E00E94902367CF8C2F837018
:100D100009F041C0111161CF4D2F429546954770A2
:100D2000440F440F0D2F0F7010E030E020E0042E30
:100D300004C0000F111F221F331F0A94D2F760E076
:100D400070E0CB01D4FF0FC06FE070E080E090E076
:100D500004C0660F771F881F991F4A95D2F76095C8
:100D6000709580959095C695C695C370602B712B34
:100D7000822B932BC23049F058F4C13019F00E94F5
:100D800045082BCF0E94330828CF0E94570825CF53
:100D90000E94310822CF8695112311F08C2F81708B
:100DA000882309F41ACF4D2F429546954770440F7A
:100DB000440F0D2F0F7010E030E020E0042E04C02F
:100DC000000F111F221F331F0A94D2F760E070E05A
:100DD000CB01D4FF0FC06FE070E080E090E004C072
:100DE000660F771F881F991F4A95D2F760957095F7
:100DF00080959095C695C695C370602B712B822BFC
:100E0000932BC23049F058F4C13019F00E940A09FE
:100E1000E4CE0E94F808E1CE0E941C09DECE0E94BA
:100E20006D08DBCECF70112329F08C2F0E94930820
:100E30008D2F1DCF8D2F0E9482058C2F0E94B4080C
:100E4000CCCED23F89F160F4D03FC9F0D13F29F137
:100E5000112309F442C00111A8CE8C2F8F7121C03B
:100E6000D33F39F1D43FA1F7112369F1CF718C2F12
:100E70000E94930863E08C2F0E94700DAECE112368
:100E800041F0053008F0A9CE8C2F8F710E94D70851
:100E9000A4CE063008F0A1CEF7CF8C2F8F7111238E
:100EA00069F20E94930899CE8C2F8F711123C9F398
:100EB000C5CF112329F08C2F8F710E947E088DCE13
:100EC0000E9479088ACE81E00E948B0D023008F4DE
:100ED00084CE82E00E948B0D80CE002359F0D9335E
:100EE00009F0F4CE8FEF97EEE3E081509040E040C0
:100EF000E1F7EACE8C2F8F71A1CFDF91CF911F91B7
:100F00000F91FF90EF90DF90CF90BF9008950F93D7
:100F10001F93CF93DF93EC01688179818A810E94CE
:100F2000CF098C010E942E090E943008B801CE0121
:100F3000DF91CF911F910F910C948905CF93DF938F
:100F4000EC018B819C81892B29F0888199818923EF
:100F50008F3F59F4DF91CF910895CE010E9487070A
:100F6000CE01DF91CF910C945F03CE010E948403E8
:100F70008111F3CF0E94CF0C882361F38A818823EB
:100F800049F382E0DF91CF910C948B0D90E080E0EB
:100F90000E94902390E080E00E94A6230E94170DFB
:100FA0000E941A0D0C943A0D0E94BF0C0C94C607B7
:100FB0000E94070D0C94D407E92FE295EF70E250E0
:100FC000EE3070F4F0E0EB57FE4C0C945330803F61
:100FD00019F020F4883E20F481E00895843FE1F385
:100FE00080E00895883EC0F3813FD1F7F5CF93FBB1
:100FF000882780F90895FC01808191810E94C509AC
:101000000C94DC07CF93DF9300D000D00F92CDB7C4
:10101000DEB70F900F900F900F900F90DF91CF9150
:101020000895CF93DF9300D000D000D0CDB7DEB7C6
:1010300026960FB6F894DEBF0FBECDBFDF91CF91DD
:10104000089508950C9421080E94220860931903C2
:1010500070931A0380931B0390931C030C94C60790
:1010600008950C9424080F931F9300911903109175
:101070001A0320911B0330911C03602B712B822BD0
:10108000932B1F910F910C9424080F931F930091A1
:10109000190310911A0320911B0330911C03602344
:1010A0007123822393231F910F910C9424080F9393
:1010B0001F930091190310911A0320911B03309183
:1010C0001C0360277127822793271F910F910C948F
:1010D00024080C9421080C9469080E946B08609302
:1010E00015037093160380931703909318030C94C1
:1010F000C60760E070E0CB010C946D080F931F935E
:1011000041E050E060E070E08A019B0104C0000F04
:10111000111F221F331F8A95D2F7C901B8011F91F1
:101120000F910C946D080F931F9341E050E060E025
:1011300070E004C0440F551F661F771F8A95D2F7D1
:101140008091150390911603A0911703B091180395
:101150008A019B01082B192B2A2B3B2BC901B801B3
:101160001F910F910C946D080F931F9341E050E075
:1011700060E070E004C0440F551F661F771F8A951A
:10118000D2F7CB01BA01609570958095909500914A
:101190001503109116032091170330911803602353
:1011A0007123822393231F910F910C946D080F9349
:1011B0001F9341E050E060E070E004C0440F551F11
:1011C000661F771F8A95D2F78091150390911603B9
:1011D000A0911703B09118038A019B0108271927D2
:1011E0002A273B27C901B8011F910F910C946D0864
:1011F0000F931F930091150310911603209117036D
:1012000030911803602B712B822B932B1F910F9120
:101210000C946D080F931F93009115031091160302
:1012200020911703309118036023712382239323A5
:101230001F910F910C946D080F931F93009115034C
:10124000109116032091170330911803602771271E
:10125000822793271F910F910C946D0808952CE01D
:10126000929F800D1124982F977041E001C0440F88
:101270009A95EAF786958695869595E0899FF0017F
:101280001124E950FD4F90E080E070E05191DF01C2
:1012900011979B01082E02C0369527950A94E2F714
:1012A000217021952527242325272C93019685300D
:1012B000910561F708952CE0929F800D1124982FDD
:1012C000977086958695869525E0829FF00111247A
:1012D000E950FD4F50E040E080E0219130E0092EE0
:1012E00002C0369527950A94E2F721703327042E21
:1012F00001C0220F0A94EAF7822B4F5F5F4F4530FF
:10130000510559F70895BF92CF92DF92EF92FF9265
:101310000F931F93CF93DF938C01C0901503D09050
:101320001603E0901703F090180380911903909131
:101330001A03A0911B03B0911C03C82AD92AEA2AD8
:10134000FB2ACFE1D0E0BC2ED701C6010C2E04C091
:10135000B695A795979587950A94D2F780FD0EC00C
:10136000219788F7B12C8B2DDF91CF911F910F9191
:10137000FF90EF90DF90CF90BF900895B8018C2F31
:101380000E944C10019761F3EECFCF93DF93EC01F5
:101390000E948309BE01DF91CF910C944C101F93E2
:1013A000CF93DF93EB019091F602992331F0CB01BB
:1013B000DF91CF911F910C94C509882379F0CB015F
:1013C0000E948309182F682FCE010E942F09BE01A9
:1013D000812FDF91CF911F910C944C10CB010E9473
:1013E0005B09182FF4CF1F93CF93DF93C0911D0398
:1013F00016E080911E038C1304C0DF91CF911F91E2
:101400000895D0E01C9FF0011D9FF00D1124E15EB6
:10141000FC4F4081518162817381848195810E945A
:1014200011082196C770E5CF40914F0350915003AA
:101430006091510370915203809153039091540332
:101440000C9411081F93CF93DF9380915403807FF6
:10145000A9F480915103882389F080911D03C091E4
:101460001E0360914F0370915003A0915203B091FD
:101470005303D62FD72316E0C81304C0DF91CF91B2
:101480001F91089590E0109711F0DF3F19F4019635
:101490008770F2CF189F9001199F300D1124F90128
:1014A000E15EFC4F41814713F2CF40814613EFCFFD
:1014B00042814111ECCF438154814A1B5B0B483C74
:1014C000510528F7809154038F70806180935403F5
:1014D000F901EC5DFC4F80818F70806180838FE427
:1014E00093E00E949E07DF91CF911F910C94F30926
:1014F000AF92BF92CF92DF92EF92FF920F931F9322
:10150000CF93DF93CDB7DEB761970FB6F894DEBF08
:101510000FBECDBF8C0185E0F801DE011D96019064
:101520000D928A95E1F7F801E2808FE4C82E83E0FE
:10153000D82E60915203709153036115710509F41F
:101540005AC190914F0320915003892F82238F3FDE
:1015500009F451C140815181A380B480F0905103BE
:10156000F501E61BF70BFF2009F4F6C08091540348
:10157000382F307FE83CF10508F0AFC0311179C059
:10158000FE2C251323C0941321C0E1101FC08F70BF
:101590008061809354030E94140AC6010E949E0732
:1015A00080915403F80185838F2D61960FB6F894CE
:1015B000DEBF0FBECDBFDF91CF911F910F91FF9086
:1015C000EF90DF90CF90BF90AF900895AB2829F0B7
:1015D000842F85238F3F09F027C180E0F82FF17019
:1015E000DF2E80FF3CC080911D0320911E0336E05A
:1015F000821315C04D875E878D859E850E94C50923
:10160000292F22952F702230F0F0243018F59F708A
:10161000F1F0F8019581907FD1F4D12C1EC090E0BB
:10162000389FF001399FF00D1124E15EFC4F61817C
:10163000651306C06081641303C06281E6120FC0A7
:1016400001968770D5CF9F7011F0882331F3805EAB
:10165000883018F3C8010E949E07FD2CA5CFEE200C
:1016600009F4A2CF80915403816080935403F12C3C
:101670009BCF251306C0941304C0F801EE2009F493
:1016800087C0C8010E94FB07882319F1EE2009F1E9
:1016900080915403803270F020914F0330915003B9
:1016A00038872F831986BB86AA868C87CE0107963A
:1016B0000E949E0786E0F801AFE4B3E001900D922E
:1016C0008A95E1F70E94220A0E94140AFF24F394EB
:1016D0006BCFC8010E949E07F9CF311113C07A2D3C
:1016E000B98AA88A6E2D89890E9402088FE493E046
:1016F0000E949E0786E0F60111928A95E9F70E9402
:10170000140AB5CF25130FC094130DC0E1100BC000
:10171000F8018583C8010E949E0786E0F6011192B8
:101720008A95E9F741CFC8010E94FB07882389F217
:10173000EE2079F280915403803208F4BBCF2091DF
:101740004F03309150033A8329831B82BD82AC82C0
:101750008E83CE010196ACCFE83CF10508F03EC087
:10176000FE2CEE2009F4B5CF25132AC0941328C00F
:101770008091540380FD1BC0982F907FC1F0F80129
:101780008583903F31F0982F907F905F8F70892BE9
:101790008583C8010E949E0786E0F801AFE4B3E0AC
:1017A00001900D928A95E1F70E94140AFDCE86E021
:1017B000F801AFE4B3E001900D928A95E1F7F4CE21
:1017C000C8010E94FB07811175CF8091540381608D
:1017D00080935403C8010E949E07E6CE7A2DB98AF1
:1017E000A88A6E2D89890E94020886E0F60111926E
:1017F0008A95E9F7D9CFEE2009F46BCFC8010E9492
:10180000FB07F82E882309F464CF86E0F801AFE4E3
:10181000B3E001900D928A95E1F78FE493E00E9486
:101820007E040E94220AC0CF81E08E25D7CE1F936E
:10183000CF93DF93CDB7DEB72C970FB6F894DEBF0A
:101840000FBECDBF4F83588769877A878B879C8768
:10185000CE0107960E94780A882369F08A859B85C5
:10186000892B39F04F815885842F85238F3F09F0CC
:1018700071C016E05FC086E0FE013796DE0111966A
:1018800001900D928A95E1F78A859B85892B89F3D2
:101890008F81988589238F3F61F320911E0330E06B
:1018A000C90101968770992740911D0348171906B1
:1018B00071F40E94D80710921E0310921D0386E057
:1018C000EFE4F3E0DF011D928A95E9F7D2CF96E0CD
:1018D000929FD001939FB00D1124A15EBC4FFE01D9
:1018E000319601900D929A95E1F780931E030E9424
:1018F000F309BFCF819FC0011124815E9C4F0E94DC
:10190000780A8823E9F0E0911D031E9FF00111245D
:10191000E15EFC4F408151816281738184819581B8
:101920000E94110880911D0390E00196877099270D
:1019300080931D0380911D0390911E038913DACFBC
:101940002C960FB6F894DEBF0FBECDBFDF91CF91BE
:101950001F91089569857A858B859C850E94110861
:1019600088CF682F80914002909141020C9404240A
:10197000682F80914002909141020C94062480913E
:101980004002909141020C94082480915503859562
:101990008595859508958091550387700895909158
:1019A0005503977081E009F480E00895909129042F
:1019B00092FB222720F9281751F080FB92F990938F
:1019C000290480912804909129040C94CE0D089547
:1019D0008091290482FB882780F991E089270C9463
:1019E000D60C81E00C94D60C80E00C94D60C80913F
:1019F0006103089590916103892B80936103089599
:101A000080959091610398239093610308951092BB
:101A10006103089590916003892B8093600308957A
:101A2000809590916003982390936003089510929D
:101A30006003089510925F030895809156030895FE
:101A400008950C94200D9091290492FD08C0909166
:101A50005603981721F0809356030C94210D089596
:101A600080915603882329F01092560380E00C944D
:101A7000210D0895E0914002F091410280916103AF
:101A80008083E0914002F091410280819091600357
:101A9000892B8083E0914002F091410280819091F6
:101AA0005F03892B808390915603992381F0E09105
:101AB0004002F09141028081892B80838091400215
:101AC000909141020E94BC2381110E94300D8091AF
:101AD0004002909141020C94852308950C946D0D61
:101AE0009091290492FD10C098E0899F90011124E3
:101AF000622B609355030E9493088091550385954E
:101B0000859585950C946E0D0C9493081092550351
:101B100080E00C946E0D90915503809589238093FD
:101B20005503282F277039F4282F082E000C330B6B
:101B30009217130621F49091290492FF07C085950E
:101B4000859585950E94B4080C94860D08956FEFD5
:101B50007FEF90E080E00C940E3190E080E00E94F6
:101B6000DA3021E0893E9E4F09F020E0822F08956F
:101B700082E090E00C94D23083E090E00C94D2307C
:101B8000CF9384E090E00E94D230C82F82E290E0B0
:101B90000E94D230982F8C2FCF910895CF93C92FC8
:101BA000682F84E090E00E94F0306C2F82E290E099
:101BB000CF910C94F030AB01BC018FE090E00C941D
:101BC0000231AB01BC0183E190E00C94023160E092
:101BD00070E0CB010C94E10D60E070E0CB010E945D
:101BE000DB0D0C94E70D69EE7EEF90E080E00E9443
:101BF0000E3160E082E090E00E94F03060E083E02F
:101C000090E00E94F0301092190310921A03109283
:101C10001B0310921C0360E084E090E00E94F0300F
:101C200060E082E290E00E94F03060E085E090E0C9
:101C30000E94F03060E086E090E00E94F0306FEFAC
:101C400087E090E00E94F03040E050E0BA0188E088
:101C500090E00E94023160E08DE090E00E94F03060
:101C600040E050E0BA0188E190E00E94023160E07B
:101C700087E190E00E94F03040E050E0BA018CE152
:101C800090E00E94023170E060E080E290E00E940B
:101C90000E3140E050E0BA0188E190E00E9402314C
:101CA0000C94EC0D0C94F30D682F8EE090E00C94E6
:101CB000F0300E94A52460936F03709370038093AB
:101CC00071039093720360936B0370936C03809322
:101CD0006D0390936E03089585B7806885BF85B7BF
:101CE000806885BF0895089508950C94730E089533
:101CF0000C94770E0E946C0E8AE291E10E942425DA
:101D00000E94740E0C94750E81E008950C94840E5C
:101D1000089508950E94880E0C94890E0E949024C4
:101D20000E942B120C94780E8F929F92AF92BF92CA
:101D3000CF92DF92EF92FF920F931F93CF93DF9397
:101D4000CDB7DEB72A970FB6F894DEBF0FBECDBF72
:101D50000E944D1281110E94590E53E6852E53E0C8
:101D6000952E10E000E0E02E802F0E946E115C01A5
:101D7000F401C190D1904F01C816D906B1F40F5F9C
:101D80001F4F0430110579F78FEF89838A831B82F7
:101D90000E9499248160782F9D838C8349815A8188
:101DA0006B818D810E9440043DC08091730381FD51
:101DB0000E947711C6018A259B25F12CCC24C3945F
:101DC000D12C9C012C213D21232B09F44DC00E94D4
:101DD000860E95012C213D21BB24B394232B09F4BD
:101DE000B12C882379F0FE82EF82B8860E94992474
:101DF0008160782F9A8789874E815F8168858A857F
:101E00000E944004000F111FF801ED59FC4F808122
:101E10009181C826D926D182C0824B2D6F2D8E2D5F
:101E20000E94361E0E94561E0E9474150E9479233D
:101E3000909162038917F9F00E94792380936203DD
:101E40002A960FB6F894DEBF0FBECDBFDF91CF91BB
:101E50001F910F91FF90EF90DF90CF90BF90AF90C8
:101E60009F908F900C943804F394CC0CDD1CFCE014
:101E7000FF12A7CF84CF2A960FB6F894DEBF0FBE0D
:101E8000CDBFDF91CF911F910F91FF90EF90DF9029
:101E9000CF90BF90AF909F908F900895CF93DF9396
:101EA0000E945010EC01811522E59207E8F581159A
:101EB00031E5930708F0ACC0883E910510F5803EEF
:101EC000910570F5883A910570F4853A910508F00E
:101ED00078C08130910521F1009711F1049700F548
:101EE000D0E0C0E01DC08F3B9105D0F7C85AD0E0CC
:101EF000CC0FDD1FCD56DD4F0990D881C02DD464A5
:101F00000FC0811540E5940708F066C0C11580E454
:101F1000D80708F05EC0CE019A9581159F4100F761
:101F2000CE01DF91CF910895811536E5930718F51D
:101F3000811545E5940708F083C0C11584E5D807ED
:101F400008F079C09C2F969596959E0123703327B3
:101F5000C115D34508F461C0C1E0D0E002C0CC0F88
:101F6000DD1F2A95E2F730E2939FC0011124C82BB0
:101F7000D92BDA68D5CFC1158AE5D80778F4C11511
:101F800099E5D90708F066C0C11528E5D20708F41D
:101F9000A7CFDC2FCC27C06FD06AC2CFCE0190561E
:101FA0008115904208F09CCF8D2F8F710E94E71011
:101FB00090E0982F882788279F719C012C2BE9019E
:101FC00047C0C55AD0E0CF53DD4FC881D0E0D064C0
:101FD000A7CFDF70D06AA4CFE4E096958795EA9505
:101FE000E1F783702C2F26952695237040E2249FDD
:101FF00090011124382B8C2F8370C1E0D0E002C0F7
:10200000CC0FDD1F8A95E2F7C22BD32BDC6888CF7B
:10201000D82FCC27C16FD06A83CFC1E0D0E002C0F7
:10202000CC0FDD1F2A95E2F720E2929FC001112418
:10203000C82BD92BEBCFDC2FCC27C46FD06A70CF45
:102040000E94E710C82FD0E0DC2FCC27CC27DF710F
:10205000D06266CF8C2F8F700E94E71034E0D69547
:10206000C7953A95E1F7CF709C2FEC01D06958CF16
:10207000972F70E02CE0929F600D711D1124FB01E1
:1020800090E3899FE00DF11D1124EE0FFF1FE45531
:10209000FF4F8591949108950E9438100C944E0F33
:1020A00082389105B1F1B0F48133910509F475C01E
:1020B00048F48932910509F469C08A32910509F41E
:1020C00073C008958533910509F459C0893391058A
:1020D00001F10895833E9105A9F138F4803E910500
:1020E000F9F0823E910549F10895863E9105A9F1E6
:1020F000873E9105C9F1843E910519F52091290487
:1021000021FF1FC08091280484FD14C087EE90E059
:102110000895209128042370A1F080EE90E00895A6
:102120002091280420FD47C03091290430FF09C0C8
:1021300024FF44C090E080E004C02091280422FDE8
:10214000F7CF08952091280422FD3BC03091290447
:1021500030FDE3CF24FFF5CFEDCF2091280423FFFE
:10216000F0CF24FDE7CFD2CF2091280423FD2CC04F
:102170003091290431FFEECF84EE90E00895209154
:10218000280425FFDECF89E290E0089520912804FD
:1021900025FFD7CF85E390E008952091280426FFFE
:1021A000D0CF8AE290E008952091280426FFC9CF7D
:1021B00081E390E0089589E390E0089583EE90E054
:1021C000089582EE90E0089586EE90E00895909153
:1021D000280492FF06C0282F28712830F9F4877F41
:1021E000846093FF06C0282F28712831F1F4877E80
:1021F00084612091290420FF06C0382F38713830BF
:10220000D9F4877F816021FF06C0282F28712831EB
:10221000D1F4877E816194FD877E0895282F2471F3
:102220002430F9F68B7F8860DCCF282F247124318D
:1022300001F78B7E8861DDCF382F3171313019F78E
:102240008E7F8860E0CF282F2171213121F78E7E8B
:102250008861E1CF80E008950C94A70D0E944D1293
:102260008FE39CE90197F1F700C000000E944D1236
:1022700080E00E946E1180FF04C00E942C110C941B
:10228000002508950C942E110E94AD0D811102C0FD
:102290000E94520E0E94B80D809373030E94C00DDD
:1022A00090932904809328040E9442110E94BC0D3F
:1022B000682F70E090E080E00E9431086091150383
:1022C0007091160380911703909118030C946B087A
:1022D00008950C94681108950C946B11E82FF0E0A8
:1022E000EE0FFF1FEE5CFB4F8081918108950895F2
:1022F00080EA8A95F1F7089500C008950C9478114A
:10230000F894E82FE295EF70F0E031A1282F2F70BC
:1023100081E090E001C0880F2A95EAF7982F909508
:10232000932391A392A1892B82A378940895CF93AC
:10233000DF9380E30E94801181E30E94801182E399
:102340000E94801183E30E948011C4ECD2E0899145
:102350008F3F11F00E94801182E0C03DD807B9F78D
:10236000DF91CF910895AF92BF92CF92DF92EF921B
:10237000FF920F931F93CF93DF938C01B62EC62F3E
:10238000D0E0CE0180539D4F7C01FC0120812F3F86
:1023900009F453C0F894E22FE295EF70F0E031A118
:1023A0002F7081E090E001C0880F2A95EAF7932F03
:1023B000982B91A392A18095892382A378940E945F
:1023C0007C11E4ECF2E030E020E0D12CC12C41E0C3
:1023D00050E081918F3FE1F1A82FA295AF70B0E05E
:1023E00090966C9170E08F7002C0759567958A9594
:1023F000E2F760FD2DC0CA01022E02C0880F991FAE
:102400000A94E2F7C82AD92A2F5F3F4F2C303105B2
:1024100001F7F70180818F3F11F00E94801161E088
:10242000C114D10409F460E08B2D0E947E11CC0F01
:10243000DD1FC00FD11FD982C882DF91CF911F91BC
:102440000F91FF90EF90DF90CF90BF90AF900895E5
:1024500090E080E0D7CF0E949711AAE2B4E01196F5
:102460001C921E92E2E3F4E01182108213961C92F9
:102470001E9212971382128215961C921E92149726
:102480001582148217961C921E9216971782168236
:1024900084E00E9498120C946A03FF920F931F939A
:1024A000CF93DF93CDB7DEB728970FB6F894DEBF92
:1024B0000FBECDBF8E010F5F1F4F88E0F801119254
:1024C0008A95E9F7F12C6F2DC8010E94B311F3949E
:1024D000F4E0FF12F8CF48E050E0B8018AE294E05F
:1024E0000E94B530FF24F394009709F4F12C892B56
:1024F00041F088E0F801AAE2B4E001900D928A95DB
:10250000E1F72F2D44E062E374E08AE294E00E9458
:1025100099120E9472038F2D28960FB6F894DEBF91
:102520000FBECDBFDF91CF911F910F91FF90089506
:102530000895FF920F931F93CF93DF93F82E092FE7
:10254000162FD72FC42F222349F081E080937603E2
:102550000E9499249093750380937403809176036D
:102560008823A1F080917403909175030E94B12497
:10257000059760F0EF2DF02FA12FBD2F90E080E0A8
:10258000D0E08C179D0744F010927603DF91CF9135
:102590001F910F91FF900895219131912D933D93BB
:1025A0000196EFCF0E940F240E948F2A0E94AA2A30
:1025B0000E94BC2A0E948A0EFBCF84E080933A04DA
:1025C0008FE780933B0480913C0480788064809303
:1025D0003C04EBE7F3E08FEF8193DF01A95BBF4F92
:1025E0001C9293E0E33CF907B9F710927A0310923A
:1025F00079031092780310927703089590913A042A
:10260000292F2F7095959595959595959F523CE01E
:10261000239F900D1124890F0895EF92FF921F932D
:10262000CF93DF93FB018F3A2CE5920708F085C02A
:102630008F394CE5940708F099C180395CE595071E
:1026400050F583382CE5920708F04CC181384CE5F1
:10265000940760F487375CE5950708F02BC18F324B
:102660002CE5920708F0DFC0D1E01DC181384CE5B0
:10267000940709F42CC182389C45B1F782818823E4
:1026800009F4FBC080913A04982F9F70993008F0AC
:10269000F4C09F5F25C18D392CE59207A0F58239E2
:1026A0004CE5940708F03BC180395CE5950709F4D7
:1026B00024C181399C45C1F68281882309F4DDC09B
:1026C00020913A04822F859585958595859586304C
:1026D0000CF0D3C091E0980F9295907F95959595C9
:1026E00095959595392F3295307F2F70232B209318
:1026F0003A0418160CF0C1C097FFBFC08295807FC6
:10270000922F9F70E0C08D394CE5940709F415C1F4
:102710008E399C4509F0A8CF8281882309F4ADC089
:1027200080913B04982F9F779F3709F4A6C0933779
:1027300008F01AC1935F9F77FEC0853B2CE5920796
:1027400009F472C1C8F5813B5CE5950709F43EC107
:10275000D8F48F3A4CE5940709F41AC1803B9C45A4
:1027600009F082CF8281882309F487C020913B043D
:10277000322F331F3327331F90913C04892F8770EA
:10278000880F832B8F5F15C160913B0430913C040F
:102790002281833BECE59E0709F43AC108F42CC181
:1027A00021112FE7862F881F8827881F632F6770C6
:1027B000660F682B42E41BC1883B2CE5920709F4A5
:1027C00046C180F4863B5CE5950709F42DC1873B43
:1027D0009C4509F049CF8281811137C18FEF8093E9
:1027E00079034BC08A3B4CE5940709F466C108F4B1
:1027F0004FC18B3B9C4509F037CFD28160913B04A0
:10280000862F881F8827881F60913C046770660F99
:10281000682BDD2309F461C14FEF5FE18AEF94E09B
:102820000E9486252AC010913B04212F221F2227B7
:10283000221FC0913C04C770CC0FC22B1F77D281DE
:1028400021ED280F30E0A90145585C4F7A01DD23C6
:10285000C1F00E94FE12D82F212F482F6C2F8AEF33
:1028600094E00E946625F701E85BFF4F80818F5F4F
:102870008083F70180818F3F11F0D0E014C0D083B6
:10288000FCCFFA014081E85BFF4F8081815080835B
:102890008111F3CF212F6C2F8AEF94E00E947625CF
:1028A0008FEFF70180838D2FDF91CF911F91FF90E4
:1028B000EF9008952281222301F38757982F9F706C
:1028C00080913A04807F892B80933A04D6CF82810D
:1028D000882399F280913A04982F9F7071F2915F4A
:1028E0009F70F0CF2281222341F28958982F929530
:1028F000907F80913A048F70E6CF8281882309F41B
:10290000BCCF80913A04982F95959595959595957E
:102910009B3F0CF4B2CF915F9295907FECCF2281D8
:10292000222309F4AACF82599CE0899F902D11247B
:102930009F7780913B04807815C08281882309F4B9
:102940009CCF80913B04982F9F7709F496CF807895
:102950009F3721F4856780933B048FCF9D30D8F358
:102960009D509F77892BF7CF8F67F5CF2281222348
:1029700009F483CF8F5990913B0480FB97F9909392
:102980003B048695877090913C04987F892B7DC08D
:102990008281882309F471CF20913B04322F331FA9
:1029A0003327331F90913C04892F8770880F832B26
:1029B000815F382F3F7080FB27F920933B04832FE2
:1029C0008695987F982B90933C0457CF82818823DB
:1029D00009F453CF60913B04862F881F8827881FF6
:1029E00060913C046770660F682B20E04BE78AEF2C
:1029F00094E00E94562541CF21112FE7862F881F92
:102A00008827881F632F6770660F682B40E4EFCF1D
:102A100021112FE7862F881F8827881F632F677053
:102A2000660F682B41E4E3CF828120E081112FE71C
:102A300060913B04862F881F8827881F60913C0483
:102A40006770660F682B43E4D2CF81E0C8CE8281E5
:102A5000882309F412CF90913C04292F26952695BE
:102A600026952F7081E0820F8F70880F880F880F56
:102A70009778892B80933C04982F987709F0FDCEA6
:102A8000220F220F220F8778822B80933C04F5CEF1
:102A90008281882309F4F1CE80913C04982F9877A5
:102AA00009F4EBCE982F969596959695915F9F7029
:102AB000990F990F990F877869CFD28160913B0464
:102AC000862F881F8827881F60913C046770660FD7
:102AD000682B40E050EED111A1CE50E040E08AEFEB
:102AE00094E00E948625DFCE8AEF94E00E9488273A
:102AF00080917703909178030E94B12420913C0447
:102B00002695269526952F702817190609F0A0F509
:102B10000E9499249093780380937703809179039E
:102B2000882351F160913B04862F881F8827881FD6
:102B300060913C046770660F682B20917A0341E036
:102B40008AEF94E00E9456258091790390917A0350
:102B500087FF0DC0482F552741950CF450959417C9
:102B600015062CF410927A03109279030895890FB8
:102B700087FD03C080937A0308958FE7FBCFEF9220
:102B8000FF920F931F93CF93DF93EB01E82FD111A7
:102B900010C0442321F0F0E0E45DFD4FE4916E2F7E
:102BA0007E2F8E2FDF91CF911F910F91FF90EF908D
:102BB00008950D2F10E0282F30E0442329F0245DE4
:102BC0003D4FF901249130E0F6E0CF9FC001112480
:102BD000EFEFF0E0BF010E942B30AB018C2F90E0B3
:102BE000880F991FA5E5A49FB001A59F700D112422
:102BF000861B970B982F990F980FBF01601B710BC5
:102C0000629FD001639FB00D729FB00D11248B2F76
:102C10009D9FB0011124672F7727EF01C61BD70BAB
:102C2000BE01629FE001639FD00D729FD00D112401
:102C30007F01E91AF108E09EB001E19E700DF09E5F
:102C4000700D1124672F7727E61BF70BE29F800199
:102C5000E39F100DF29F100D1124E12F722F4230CF
:102C6000510599F048F44115510569F0413051057D
:102C700081F0EB2F8D2F07C04430510569F080F0B3
:102C800046305105B1F76E2F8DCFE22F7B2F812F6C
:102C9000FACFE22F7D2FF7CFEB2F822F712FF3CFBB
:102CA0007B2F822FED2FEFCF41E00C94BF1530E04A
:102CB00020E0869F212D969F200D311D1124C901F2
:102CC0000895AC018230910508F408959FEF413ECC
:102CD0008EE1580740F49A0195E0369527959A952C
:102CE000E1F798E0920F61E0E62FE90FFF27FF1F61
:102CF0009F0135952795822F229FF001239FF00D8C
:102D0000F00D11244E175F0738F49FEF920F9617BE
:102D100058F78FEF860F08952F3FE9F361E0620FB8
:102D2000F6CFE82F86FDE0952E2F2F7086FD2F5FC2
:102D3000E695E695E695E670F0E0EC52FD4F918160
:102D4000929F902D212D112492959F702295207F86
:102D5000922B2081920F87FD919580E8890F08952D
:102D6000E42FF0E0EE0FFF1FEC5CFE4F408134EEED
:102D7000439F412D1124E72FF0E050E0445E5F4F68
:102D8000DA01A21BB1099D01B7FF03C0319521955E
:102D9000310993E0220F331F9A95E1F7AF01421BEF
:102DA000530B9A0157FD20E0279F212D1124722FEC
:102DB0000895E42FF0E0EE0FFF1FEC5CFE4F408122
:102DC00034EE439F412D1124E82FF0E050E0445EA3
:102DD0005F4FDA01A21BB1099D01B7FF03C0319516
:102DE0002195310993E0220F331F9A95E1F7AF0146
:102DF000421B530B9A0157FD20E0582F259F212D90
:102E00001124822F0895622F0895E42FF0E0EE0F31
:102E1000FF1FEC5CFE4F6081621B0895E42FF0E021
:102E2000EE0FFF1FEC5FFE4F61A9621B0895322F6A
:102E300050E0FA01EE0FFF1FEC5FFE4F91A9905298
:102E400097FD9195440F551FFA01EC5CFE4F2081D0
:102E5000231B330B290F311D97FD3A95620F0895FF
:102E6000EF920F93972F23E0029FB00111247595E5
:102E700067956E0D792F0F91EF9008950F93CF9373
:102E8000DF93D72FC82F47FD419588E390E0841B3F
:102E9000910947FD9395889FB001899F700D700D32
:102EA0001124229FC001239F900D900D1124860FA5
:102EB000971F0E946116982F990F890F682F600F36
:102EC0007D2F8C2FDF91CF910F9108950F931F933A
:102ED000522F10E0F801EE0FFF1FEC5FFE4FA1A98B
:102EE000A052BB0B9D015203F001539FF00D112422
:102EF000000F111FD801AC5CBE4F0C910057110B95
:102F000040039001419F300D11242E0F3F1F37FFCA
:102F100002C021583F4F220F232F221F330B620F75
:102F20001F910F9108950F931F93522F10E0F801F6
:102F3000EE0FFF1FEC5FFE4FA1A9A052BB0B9D013E
:102F40005203F001539FF00D1124000F111FD801FF
:102F5000AC5CBE4F0C910057110B40039001419F98
:102F6000300D11242E0F3F1F37FF02C0215C3F4F51
:102F700096E0359527959A95E1F7620F1F910F918D
:102F800008950F931F9310E0F801EE0FFF1FEC5C04
:102F9000FE4F9081905797FD9195000F111FF801FA
:102FA000EC5FFE4F01A90052110B2003F001219F9D
:102FB000F00D112408E310E0091B110997FD13958A
:102FC00040039001419F300D1124E20FF31F9F0138
:102FD000220F331F2E0F3F1F37FF02C021583F4FD4
:102FE000220F232F221F330B620F1F910F91089581
:102FF0000F931F93CF93DF938B01D82FC42F822F72
:103000000E949116EC2FF0E0EE0FFF1FEC5CFE4FDC
:1030100090819058890F87FD8195880F682F2CE04B
:10302000629F612D1124600F712F8D2FDF91CF9141
:103030001F910F910895E42FF0E0EE0FFF1FEC5C5D
:10304000FE4F9081921B97FD9195292F38E1239F88
:10305000212D1124620F0895FC019B01009729F492
:1030600080E077FF2BC080E80895AC0197FF04C093
:1030700044275527481B590BB901640F751F37FDAD
:1030800010C0241B350BC901A5E0880F991FAA9514
:10309000E1F70E943F3080E2861BF7FF0FC0819569
:1030A0000895CB0165E0880F991F6A95E1F7BA0191
:1030B000621B730B0E943F3080E6EECF08950F93A2
:1030C0001F93CF93DF93D62F172FC82FC901272F18
:1030D000201B022FBA010E942C18982F990F990FCC
:1030E000782F791B700F719F712D11246D2F8C2FEC
:1030F000DF91CF911F910F9108950F931F93CF935D
:10310000DF93D62FC72F182FC901212F201B022F85
:10311000BA010E942C18982F990F990F891B800FC4
:10312000282F219F212D1124822F6D2F7C2FDF919D
:10313000CF911F910F910895EF920F931F93CF930B
:10314000DF93D62F172FC82FC9010E19070FBA0109
:103150000E942C18702F781B719F712D11246D2FD8
:103160008C2FDF91CF911F910F91EF900895EF92E7
:103170000F931F93CF93DF93D62FC72F182FC9011B
:103180000E19010FBA010E942C18081B202F219F35
:10319000212D1124822F6D2F7C2FDF91CF911F9134
:1031A0000F91EF9008950F93CF93DF93D72FC82FF0
:1031B000C901BA010E942C18682F600F7D2F8C2F37
:1031C000DF91CF910F910895EF920F93CF93DF93FB
:1031D000D72FC82FC9010E19BA010E942C18602FD1
:1031E000681B7D2F8C2FDF91CF910F91EF90089569
:1031F0000C94541646E050E06CE170E08EE394E0ED
:103200000C94C23046E050E06CE170E08EE394E054
:103210000C94E030EEE3F4E085E3808380915F027C
:1032200090916002A091610281839283A3838FE7D2
:1032300084838FEF85830C940219E091E202F09170
:10324000E3020994E091DE02F091DF0209943F92DB
:103250004F925F926F927F928F929F92AF92BF92A6
:10326000CF92DF92EF92FF920F931F93CF93DF9352
:103270003C012B01FC01C0818CE0C89FC02D1124B2
:103280001CE01C0FF12E1B3310F03AE3F32E60917B
:103290004204669580914404909145040E9457161B
:1032A000382ED0E0CE01880F991F9C012C5F3E4F35
:1032B0006901CF15B0F081E01A3308F080E0DF91AA
:1032C000CF911F910F91FF90EF90DF90CF90BF9023
:1032D000AF909F908F907F906F905F904F903F90B6
:1032E0000895FE01E855FE4F8081F3019181892305
:1032F00079F1F60180A9282F2057330B590181A9B4
:10330000E82FE052FF0B4F01AA9C9001AB9C300DBF
:10331000300D1124EE9FC001EF9F900D900D1124F0
:10332000820F931F0E946116082F60913F047091D5
:10333000400480914104E32C9401A501F201099518
:103340000E94F818462F282F672FCE010E942219BD
:10335000F2E0CF0ED11C2196ACCF6CE978E10C9451
:10336000271967EB78E10C94271960E377E10C9457
:10337000271964EE78E10C9427198F929F92AF92EF
:10338000BF92CF92DF92EF92FF920F931F93CF9352
:10339000DF935C016B01FC01C0818CE0C89FC02DF4
:1033A00011241CE01C0F912E1B3310F03AE3932ED6
:1033B00060914204669580914404909145040E9476
:1033C0005716882ED0E0CE01880F991F9C012C5FE4
:1033D0003E4F7901C91588F081E01A3308F080E08A
:1033E000DF91CF911F910F91FF90EF90DF90CF90E1
:1033F000BF90AF909F908F900895FE01E855FE4FCB
:103400008081F50191818923C1F0F70121A9205222
:10341000330B40A94057550B60913F047091400415
:1034200080914104082DF60109950E94F818462F55
:10343000282F672FCE010E942219F2E0EF0EF11C17
:103440002196C8CF6FE578E10C94BD196DE778E15E
:103450000C94BD196EE377E10C94BD1963ED78E12E
:103460000C94BD19BF92CF92DF92EF92FF920F930F
:103470001F93CF93DF937C018B01FC01C0818CE013
:10348000C89FC02D11249CE0D92EDC0ECD2CFAE370
:10349000FD1510F48AE3C82E609142046695669586
:1034A00021E0620F08F46FEF80914404909145048D
:1034B0000E945716B82ED0E0CC1578F081E099E341
:1034C0009D1508F480E0DF91CF911F910F91FF903F
:1034D000EF90DF90CF90BF900895FE01E855FE4F2A
:1034E0008081F7019181892391F060913F0470916F
:1034F0004004809141042B2D4C2FF80109950E9426
:10350000F818462F282F672FCE010E9422192196E6
:10351000D3CF60EB76E10C94321A69ED76E10C942E
:10352000321A63E077E10C94321A65E077E10C948B
:10353000321A6EE077E10C94321A67E177E10C946D
:10354000321A68EF77E10C94321A6BE178E10C944F
:10355000321A7F928F929F92AF92BF92CF92DF9258
:10356000EF92FF920F931F93CF93DF935C016B0158
:10357000FC01C0818CE0C89FC02D11241CE01C0FF1
:10358000912E1B3310F03AE3932E6091420466951E
:10359000669580914404909145040E945716F82E38
:1035A00080E48F0D0E94911690E8892E880E8F2D51
:1035B0000E94911620E8722E780ED0E0C91590F086
:1035C00081E01A3308F080E0DF91CF911F910F91D5
:1035D000FF90EF90DF90CF90BF90AF909F908F9033
:1035E0007F900895FE01E855FE4F8081F50191819D
:1035F0008923A1F060913F047091400480914104BF
:10360000EF2C0C2F272D482DF60109950E94F81854
:10361000462F282F672FCE010E9422192196CECF48
:1036200066E677E10C94A91A63E977E10C94A91A8C
:1036300061EC77E10C94A91ABF92CF92DF92EF92DE
:10364000FF920F931F93CF93DF937C01FC01C08106
:103650008CE0C89FC02D11241CE01C0F012F1B33D0
:1036600008F00AE360913F047091400480914104A6
:103670000E94F818D62EC72EB82ED0E0C01770F0D2
:1036800081E01A3308F080E0DF91CF911F910F9114
:10369000FF90EF90DF90CF90BF900895FE01E85526
:1036A000FE4F8081F7019181892331F02B2D4D2D23
:1036B0006C2DCE010E9422192196E0CF8F929F920D
:1036C000AF92BF92CF92DF92EF92FF920F931F9330
:1036D000CF93DF937C01FC01C0818CE0C89FC02D9B
:1036E00011241CE01C0F012F1B3308F00AE3C090CB
:1036F0004004D0904104D0913F046D2F7C2D8D2D3E
:103700000E94F818B62EA72E982E609142046D0FD5
:103710007C2D8D2D0E94F818D62EC72E882ED0E035
:10372000C01788F081E01A3308F080E0DF91CF9174
:103730001F910F91FF90EF90DF90CF90BF90AF90CF
:103740009F908F900895FE01E855FE4F9081F701FC
:103750008181892359F0282D4D2D6C2D90FD03C0BA
:10376000292D4B2D6A2DCE010E9422192196D8CFEA
:10377000BF92CF92DF92EF92FF920F931F93CF935E
:10378000DF937C01FC01C0818CE0C89FC02D112417
:103790001CE01C0FD12E1B3310F09AE3D92EC090E1
:1037A0004004B09041042091420400E4029F012DA6
:1037B0001124D0E0CD1570F081E01A3308F080E0DC
:1037C000DF91CF911F910F91FF90EF90DF90CF90FD
:1037D000BF900895FE01E855FE4F8081F701918169
:1037E0008923B9F0FE01EE0FFF1FEC5FFE4F81A9A8
:1037F00082958F7060913F04809F600D11247C2D15
:103800008B2D0E94F818462F282F672FCE010E947B
:1038100022192196CFCFBF92CF92DF92EF92FF92E3
:103820000F931F93CF93DF938C01FC01C0818CE039
:10383000C89FC02D11245CE0F52EFC0EDF2CFAE3AE
:10384000FF1510F44AE3D42EC0904004B090410418
:103850002091420430E4E32E3E2D329F312D11247D
:10386000E32ED0E0CD1578F081E039E33F1508F480
:1038700080E0DF91CF911F910F91FF90EF90DF904B
:10388000CF90BF900895FE01E855FE4F8081F8016A
:1038900091818923D9F0FE01EE0FFF1FEC5FFE4FEF
:1038A00060A9E69EB001112495E0759567959A95FB
:1038B000E1F780913F04680F7C2D8B2D0E94F81852
:1038C000462F282F672FCE010E9422192196CACF9A
:1038D000BF92CF92DF92EF92FF920F931F93CF93FD
:1038E000DF938C01FC01C0818CE0C89FC02D1124A6
:1038F0009CE0F92EFC0EEF2CFAE3FF1510F48AE39E
:10390000E82ED0903F04D0914004C09041046091D3
:1039100042046695669566958091440490914504AD
:103920000E9457160E949116805887FD8195880F36
:10393000282F3C2D239F212D1124822F6D2D7D2F8B
:103940000E94F818D62EC72EB82ED0E0CE1578F0EB
:1039500081E029E32F1508F480E0DF91CF911F91DA
:103960000F91FF90EF90DF90CF90BF900895FE01F0
:10397000E855FE4F8081F8019181892331F02B2D8C
:103980004D2D6C2DCE010E9422192196DFCFDF92A2
:10399000EF92FF920F931F93CF93DF938C01FC0163
:1039A000E855FE4F8081682381F1D0904004D0918A
:1039B0004104C0913F04EC2EF12C0E94A530282F29
:1039C000C7018C549F4F68E671E00E943F308E190A
:1039D0009F0997FD039695958795959587952370F3
:1039E0006C2F289F600D11247D2D8D2F0E94F818BB
:1039F000462F282F672FC801DF91CF911F910F917C
:103A0000FF90EF90DF900C942219DF91CF911F91DE
:103A10000F91FF90EF90DF900895DF92EF92FF9269
:103A20000F931F93CF93DF938C01FC01C281C111CF
:103A300025C06091420420E1620F08F46FEF80918D
:103A40004404909145040E9457166AE070E00E9479
:103A50002B30892B51F40E94A5306AE370E00E945C
:103A60003F30F80161810E94C71C8C2FDF91CF91FC
:103A70001F910F91FF90EF90DF900895C0818CE02F
:103A8000C89FC02D11248CE0D82EDC0E8D2DFAE3BA
:103A9000FD1508F48AE3D0E0E82EF12CCE15DF0501
:103AA00034F0C1E0F9E3FD1500F7C0E0DECFF80126
:103AB0006181CE010E94C71C2196F0CF1F93CF9346
:103AC000DF93EC01FC01E855FE4F80816823C9F0CB
:103AD0000E94A530182F0E94A5308F77782F20E8FC
:103AE000720F08F47FEF612F809141040E94F81853
:103AF000462F282F672FCE01DF91CF911F910C9475
:103B00002219DF91CF911F910895DF92EF92FF92DA
:103B10000F931F93CF93DF938C01FC01C281C111DE
:103B200025C06091420420E1620F08F46FEF80919C
:103B30004404909145040E94571665E070E00E948D
:103B40002B30892B51F40E94A5306AE370E00E946B
:103B50003F30F80161810E945E1D8C2FDF91CF9173
:103B60001F910F91FF90EF90DF900895C0818CE03E
:103B7000C89FC02D11248CE0D82EDC0E8D2DFAE3C9
:103B8000FD1508F48AE3D0E0E82EF12CCE15DF0510
:103B900034F0C1E0F9E3FD1500F7C0E0DECFF80135
:103BA0006181CE010E945E1D2196F0CFBF92CF921F
:103BB000DF92EF92FF920F931F93CF93DF937C01DD
:103BC000FC01C0818CE0C89FC02D11241CE01C0F9B
:103BD000012F1B3308F00AE3C0904004D090410449
:103BE000D0913F04609142046695669566958091F8
:103BF0004404909145040E9457160E9491168058E3
:103C000087FD8195880F682F2CE0629F612D11241C
:103C10006D0F7C2D8D2D0E945416D62EC72EB82EDA
:103C2000D0E0C01770F081E01A3308F080E0DF9137
:103C3000CF911F910F91FF90EF90DF90CF90BF90A9
:103C40000895FE01E855FE4F8081F7019181892397
:103C500031F02B2D4D2D6C2DCE010E942219219675
:103C6000E0CFE091E002F091E10209940C94840E1F
:103C700008950E94381E0C94B20208950895CF93BF
:103C8000DF93FC01C0818CE0C89FC02D1124D4EFCC
:103C9000DC0FCB3308F0CAE36C2F8D2F0E943D1E42
:103CA0006C2F8D2FDF91CF910C943E1ECF930E94ED
:103CB000A52460930B0470930C0480930D049093DF
:103CC0000E0430913E04C32FC37019F0C32FC69564
:103CD000C695209142022130C1F0222341F02230CA
:103CE00009F4E8C0233009F4EFC0CF910895109291
:103CF0004302609344047093450480934604909378
:103D0000470481E080934202F0CF9091460281E027
:103D1000C9130BC0832F83702091470230E091E0DC
:103D20008217130609F490E0892F81708093450271
:103D30008091430490914402981739F08093440293
:103D400040E060E080E00E94311ECC3178F4EC2F3E
:103D5000F0E0ED56FE4C0C945330809145028823E0
:103D600059F040E060E080E00E94311E80E004C035
:103D700083E492E00E941C1B909143029F5F90930A
:103D80004302811193C082E08093420280914502F8
:103D900081118CC0CC2309F495C00E94391E83E4A4
:103DA00092E0CF910C943F1E83E492E00E945E1B50
:103DB000E3CF83E492E00E94B81BDECF83E492E07D
:103DC0000E940B1CD9CF83E492E00E94681CD4CFE0
:103DD00083E492E00E94891ACFCF83E492E00E94AC
:103DE0008D1ACACF83E492E00E94221AC5CF83E4E1
:103DF00092E00E94261AC0CF83E492E00E94AD199F
:103E0000BBCF83E492E00E94B119B6CF83E492E085
:103E10000E94911AB1CF83E492E00E94951AACCF30
:103E200083E492E00E94991AA7CF83E492E00E9473
:103E30009D1AA2CF83E492E00E94B5199DCF83E43E
:103E400092E00E942A1A98CF83E492E00E942E1AF0
:103E500093CF83E492E00E94B9198ECF83E492E07D
:103E60000E94101B89CF83E492E00E94141B84CF30
:103E700083E492E00E94181B7FCF83E492E00E94CB
:103E80000D1D7ACF83E492E00E94851D75CF83E4F7
:103E900092E00E94D61D70CF83E492E00E94A11AA6
:103EA0006BCF83E492E00E94A51A66CFCC2309F47D
:103EB0001CCF73CFC0934602832F83708093470239
:103EC0000E941D1983E01ECF80910F0481110E9472
:103ED000021910920F04609144047091450480917E
:103EE0004604909147040E94C02460317105810509
:103EF000910508F4FACE10924202F7CEE091DC026E
:103F0000F091DD0209950E94AD0D811104C00E945F
:103F1000520E0E940A190E94FA1880913E048C7F6A
:103F200011F40C940A1908950895EEE3F4E09081D9
:103F300021E0922790831092420290910F04892BE6
:103F400080930F04089581E00C94951F90913E0496
:103F5000937061F081110BC0946090933E041092B5
:103F6000420280910F04862B80930F0408958C31B8
:103F700010F09C66F2CF880F880F982BEECF61E08F
:103F80000C94A61F682F90913E049695969581E01B
:103F9000890F8C3108F081E00C94A61F81E00C940D
:103FA000C21F682F90913E04969596958FEF890FCA
:103FB00009F48BE10C94A61F81E00C94D11F909121
:103FC0003E04937071F080933F046093400449373E
:103FD00008F048E74093410480910F04822B8093BE
:103FE0000F040895AEE3B4E01196EC911197F0E060
:103FF000282F13964C91139712966C91CF01089627
:104000000C94DF1F81E00C94F21FEEE3F4E0918149
:10401000282F43816281E92FE850FF0BCF010C94D8
:10402000DF1F81E00C940520EEE3F4E0628120E1E3
:10403000620F08F46FEF9181282F4381892F90E060
:104040000C94DF1F81E00C941420EEE3F4E0628115
:1040500020E1621B08F460E09181282F4381892FC1
:1040600090E00C94DF1F81E00C942520EEE3F4E057
:10407000438120E1420F08F44FEF9181282F6281A4
:10408000892F90E00C94DF1F81E00C943620EEE342
:10409000F4E0438120E1421B08F440E09181282FA5
:1040A0006281892F90E00C94DF1F81E00C944720FF
:1040B0008093420480910F04862B80930F0408950F
:1040C0002091420430E1230F08F42FEF682F822F54
:1040D0000C94582081E00C9460202091420430E13F
:1040E000231B08F420E0682F822F0C94582081E0D5
:1040F0000C946D200895FC01EE0FFF1FE80FF91FCF
:10410000E85BFB4F6183408322830895E8E4F4E099
:10411000818360834283339694E0E63FF907C1F7D9
:1041200008956AE370E088E494E00C943621FA0183
:10413000811101C0FB0109940F931F93CF938C0150
:10414000FB01C281CC2309F48FC00E94F70C82725C
:104150000B3CFCE51F0709F472C060F5063CECE57A
:104160001E0709F458C080F4043C9CE5190709F4C3
:1041700048C008F04BC0033C1C4509F43FC08C2FDD
:10418000CF911F910F910895083C9CE5190709F400
:104190004CC008F445C0093CFCE51F0709F44AC0BF
:1041A00045E550E264E470E20A3C1C4541F70E9498
:1041B00097201EC0003DECE51E0709F453C080F4B3
:1041C0000D3C9CE5190709F444C0F0F10E3CFCE5F8
:1041D0001F0709F443C00F3C1C4589F685E03FC02A
:1041E000073D9CE5190730F482E1023D1C45B8F11A
:1041F000C0E0C5CF0E351D45D9F3C1CF0E94A31F26
:10420000F7CF4CED5FE16EEC7FE1D1CF4EEC5FE19B
:104210006CED7FE1CCCF41E150E262E070E2C7CFCC
:1042200042E050E261E170E2C2CF43E350E262E279
:1042300070E2BDCF42E250E263E370E2B8CF44E403
:1042400050E265E570E2B3CF47E750E26AE670E21C
:10425000AECF4AE650E267E770E2A9CF81E00E9464
:10426000BF1FC6CF8DE0FBCFC1E089CF3E9A48B1DA
:104270004F7B58B15064EFB7F8949B01220F331F66
:10428000260F371F280F391F2817390741F4EFBFB2
:104290008FE594E00197F1F700C000000895DC017C
:1042A0006D91CD0178E058B9000000C067FF48B9B2
:1042B000660F000000C000C000C048B900C07A9579
:1042C00091F7E2CF0F931F93CF93DF93C42FD22F99
:1042D000FC0182818823C9F0409312040E94992432
:1042E000909311048093100480E28C0F883008F0C2
:1042F00050C0C77081E001C0880FCA95EAF7DF910E
:10430000CF911F910F910C947B05109112041413FF
:1043100035C080911004909111040E94B124883C12
:10432000910560F5C0E2CD0F1D17B9F080E2810F55
:10433000883040F4177081E001C0880F1A95EAF7C1
:104340000E948205C83048F481E09D2F977001C01B
:10435000880F9A95EAF70E947B05802F0E947305CB
:10436000C830B8F4D77081E001C0880FDA95EAF759
:10437000DF91CF911F910F910C94820580E28C0FF9
:10438000883038F4C77081E001C0880FCA95EAF719
:10439000EFCFDF91CF911F910F9108950F939C0163
:1043A000CB01243F4CE5340759F1A8F4293DFCE545
:1043B0003F0701F12A3D4CE53407D1F1283D3C454A
:1043C00091F406E221EE41EE68ED7CE50E94622167
:1043D00080E00F910895263FFCE53F07E9F0B0F03B
:1043E000273F3C45F9F0FC018281882339F1109286
:1043F0001204EFCF07E225EE45EE69ED7CE5E6CF4E
:1044000006E221EE40EE64EF7CE5E0CF07E225EE28
:1044100044EE65EF7CE5DACF06E221EE42EE66EF90
:104420007CE5D4CF07E225EE46EE67EF7CE5CECF04
:1044300008E221E045EE6AED7CE5C8CF81E0C9CF16
:10444000CF93DF93EC01FB018281882309F420C123
:10445000C430FDE5DF07C8F5CB3F9CE5D90730F454
:104460009E0122503C452431310598F50E94C00D33
:104470009093290480932804C031FCE5DF0709F4F8
:10448000E0C008F061C0C8309CE5D90709F4CBC092
:1044900088F5C430FCE5DF0709F4B3C0E8F4C230A6
:1044A0009CE5D90709F4A7C0809128048260C33035
:1044B000DC4509F4A3C080912804909129040E944E
:1044C000CE0D0E94D80780E004C0C236EDE5DE07BD
:1044D00069F2DF91CF910895809128048061C63000
:1044E000FCE5DF0709F48AC008F48FC08091280436
:1044F000806284C0809128048D7FCC309CE5D907F0
:1045000009F47CC070F4809128048C60CA30FCE50A
:10451000DF0709F473C008F48AC0809128048E7FF5
:104520006DC080912804877FCE309CE5D90709F4BF
:1045300065C0809128048B7FCF30DC4508F45EC0D5
:10454000809128048F7E5AC0CD3FFCE5DF0709F437
:1045500074C040F5C4319CE5D90709F48AC058F409
:10456000C231FCE5DF0709F474C008F46EC0809125
:104570002804837F43C0CB3F9CE5D90709F449C099
:1045800008F04DC0C531DC4509F095CF8091280475
:1045900082FB992790F921E0922790FB82F990FB0A
:1045A00083F92CC0C1308DE5D80709F458C088F4D0
:1045B000809129048360CF3FECE5DE0769F18091AB
:1045C00029048D7FC115DD4538F1809129048C7F48
:1045D00023C0C3308DE5D80709F458C008F452C091
:1045E000C236DD4509F067CF90912804892F8F7E70
:1045F00094FF806103C08091280481608093280427
:104600005ACF809128048460F9CF80912804886073
:10461000F5CF809129048160809329044CCF80914B
:1046200029048260F9CF809128048064E7CF0E943A
:10463000D807809128048068E1CF809129048E7F7B
:10464000EBCF809128048F7DD9CF809128048F7B78
:10465000D5CF0E94D807809128048F77CFCF809143
:104660002904982F909591708E7F892B90FB81F96A
:10467000D3CF0E94D80790912804892F97FB87F900
:104680008058BCCF81E00E94540E15CF80E0FBCF54
:1046900081E01FCFCF93DF93EB0186319C4511F56D
:1046A0000E94F70C9A81992399F08A7A91E009F493
:1046B00090E090931304811109C089E20E94B10C2B
:1046C0000E943A0D80E0DF91CF91089585E3F6CF07
:1046D00080911304811104C089E20E94B80CF0CFCC
:1046E00085E3FBCF81E0EFCF90931904809318040A
:1046F0000895E0911804F0911904309721F0019089
:10470000F081E02D099480E00895E0911804F09183
:104710001904309721F00280F381E02D0994089567
:1047200020911604309117042817390771F09093DF
:10473000170480931604E0911804F091190430973F
:1047400021F00680F781E02D09940895209114044A
:10475000309115042817390771F090931504809350
:104760001404E0911804F0911904309721F00084AA
:10477000F185E02D099408959C012E5F3F4FAC0117
:10478000485F5F4F80E02417350709F40895F90169
:1047900091919F019923B9F38F5FF5CF662349F07B
:1047A000FC01329608962191261729F0E817F9079F
:1047B000D1F780E0089581E008959C01FC013296D4
:1047C0009FEF80E04191461751F09F3F19F441114E
:1047D00001C0982F8F5F8630A9F79F3F09F4089595
:1047E000290F311D97FD3A95F90162830895FC0167
:1047F000329608962191261303C0DF0111971C926F
:10480000E817F907B9F708950C94DD230C94F72302
:10481000029626E0FC0111922A95E9F70895089581
:10482000089508950C9411248091EB05843061F172
:104830000E94122480E00E94380481E00E94941FAC
:1048400010921A0488E190E020E40FB6F894A8953D
:10485000809360000FBE2093600083B7817F8460E7
:1048600083BF83B7816083BF7894889583B78E7F39
:1048700083BF0FB6F894A8958091600088618093FB
:104880006000109260000FBE08950895CF930E94BB
:1048900010240E944D120E944524C0E08C2F0E94DB
:1048A0006E11892B31F4CF5FC430C1F780E0CF9116
:1048B000089581E0FCCF08950C945B240E94D807F2
:1048C0000E9479230E94380480E00E94941F0C9477
:1048D0005C241F921FB61F9211248F939F93AF9356
:1048E000BF9380911A04811113C08091F6049091B6
:1048F000F704A091F804B091F9044196A11DB11DEF
:104900008093F6049093F704A093F804B093F9040D
:10491000BF91AF919F918F911F901FBE1F901895CF
:1049200082E084BD93E095BD9AEF97BD80936E00C1
:1049300008952FB7F8948091F6049091F704A09110
:10494000F804B091F9042FBF08952FB7F89460913F
:10495000F6047091F7048091F8049091F9042FBF48
:1049600008959C014FB7F8948091F6049091F70454
:10497000A091F804B091F9044FBF821B930B0895E6
:10498000CF92DF92EF92FF922FB7F894C090F60487
:10499000D090F704E090F804F090F9042FBFA7013D
:1049A0009601261B370B480B590BCA01B901FF9022
:1049B000EF90DF90CF90089578941F921FB61F92CA
:1049C00011248F939F93AF93BF938091F60490919E
:1049D000F704A091F804B091F9040196A11DB11D4E
:1049E0008093F6049093F704A093F804B093F9042D
:1049F000BF91AF919F918F911F901FBE1F901895EF
:104A000081E08093E00080E28093D8001092C9009A
:104A10008FE19EE40197F1F700C0000087E090EB82
:104A2000DC018093F4059093F505A093F605B0930F
:104A3000F70588E19CE00FB6F894A8958093600094
:104A40000FBE90936000FFCF9093F5028093F40225
:104A50000895881F8827881F089591E0883F08F4EB
:104A600090E0892F0895982F907F903BE9F040F4D3
:104A70009039D1F0903AC1F09038B1F080E00895CB
:104A8000903D19F020F4903CC9F782E00895903EE3
:104A900059F0903F99F7815F8F3080F7E82FF0E071
:104AA000EC51FD4F8081089583E008950F93022F0C
:104AB0000F77242F2F776F70462F406BDC01ED911D
:104AC000FC9163E070E009950F9108950F93022F18
:104AD0000F77242F2F776F70462F4069DC01ED91FF
:104AE000FC9163E070E009950F9108950F93022FF8
:104AF0000F77242F2F776F70462F4068DC01ED91E0
:104B0000FC9163E070E009950F9108950F931F9356
:104B1000411520E2520744F49A01305E4115504E8F
:104B20002CF430E020E002C02FEF3FE38901000FBA
:104B3000012F001F110B11952F776F70462F406EBC
:104B4000DC01ED91FC9163E070E009951F910F91FC
:104B50000895FC01738362830895FC01758F648F4F
:104B60000895CF93DF93EC011DA21FA21EA2BC01EA
:104B7000685D7F4F40EC88519F4F0E94BC271B828D
:104B80001A821D821C821F821E82198618861B862D
:104B90001A861D861C861F861E86198A188A1B8AFD
:104BA0001A8A1D8A1C8A1F8A1E8A198E188E1B8ECD
:104BB0001A8E1D8E1C8E1F8E1E8E19A218A2DF91BA
:104BC000CF910895EF92FF920F931F93CF93DF93AE
:104BD000EA018A01060F111D88519F4F7C01C01701
:104BE000D10739F4DF91CF911F910F91FF90EF9092
:104BF00008956991C7010E94C327F1CFFC01718319
:104C000060830895FC0171A360A30895AF92BF92E1
:104C1000CF92DF92EF92FF920F931F93CF93DF9388
:104C200000D00F92CDB7DEB77C016B01142FB22EEE
:104C3000A02EDC0195968C9195978430A9F55A9613
:104C4000ED91FC913097E9F1CB01019763E070E0C1
:104C50000E942B30CB01880F991F860F971F498325
:104C6000BA820B834C2D481B9E012F5F3F4FBC0126
:104C7000C7010995D7015E96ED91FC91309731F00F
:104C80000A2D2B2D412FB601C70109950F900F90CA
:104C90000F90DF91CF911F910F91FF90EF90DF90D8
:104CA000CF90BF90AF9008956230710509F455C060
:104CB0006330710599F06130710509F481C0D12C20
:104CC000C12CD7015C96ED91FC91309799F20A2D99
:104CD0002B2D412FB601C7010995CCCF842F807FA2
:104CE000803A11F148F48038D1F0803951F7D7017A
:104CF0001496ED91FC910AC0803ED9F0803FF1F00E
:104D0000803BF9F6D7011296ED91FC913097C9F2EC
:104D1000123FE9F02A2D4B2D612F6F701BC0D70178
:104D20001696ED91FC91F2CFD7011896ED91FC917A
:104D3000EDCFD7011A96ED91FC91E8CF423F09F6ED
:104D4000D7011C96ED91FC91309709F4BACF2A2D2A
:104D50004B2D62EFC70109958DCF842F807F803D59
:104D6000B1F0803FC9F0803C09F0ABCFD7011E966F
:104D7000ED91FC91309709F4A4CF812F8D7F4B2DBD
:104D8000612F6F70813F89F0C701099573CFD701FB
:104D90005096ED91FC91EECF433F51F4D7015296DE
:104DA000ED91FC91309709F48CCF4B2D612FECCF16
:104DB000413F09F086CFD7015496ED91FC91F2CF97
:104DC000842F0E942D25882359F0D7015696ED9106
:104DD000FC91309709F475CF612FC70109954ACF2F
:104DE000163F09F06ECFD7015896ED91FC91F1CFA7
:104DF000FF920F931F93CF93DF93EC01162F862F13
:104E00000E942D25882391F0FDA081E08DA300E074
:104E100020E0412F61E070E0CE010E940626FDA255
:104E2000DF91CF911F910F91FF900895812F0E94E4
:104E300029254DA1882309F443C0443029F01AA341
:104E400081E090E09FA38EA3812F0E9433258130C3
:104E500051F08823A9F0823089F0833079F01DA2C7
:104E60001FA21EA2DDCF8DA300E020E0412F61E054
:104E700070E0CE010E9406261DA2D2CF8DA3D0CF16
:104E8000103FB1F0173F59F72EA13FA1C90163E0D0
:104E900070E00E942B30FE01E80FF91F12A3B90148
:104EA0006F5F7F4F7FA36EA30CA12BA14AA1E1CF1F
:104EB00084E08DA31AA381E090E09FA38EA3B0CFDE
:104EC000442309F4ADCF2EA13FA1C90163E070E0F6
:104ED0000E942B30FE01E80FF91F12A3B9016F5F8A
:104EE0007F4F7FA36EA38130910569F0029709F08F
:104EF00097CF0CA12BA14AA1CE010E9406268DA11D
:104F00008430C9F68DCF00E0423009F089CFF2CF6E
:104F1000CF92DF92EF92FF920F931F93CF93DF9385
:104F2000EC01E8A1F9A1309709F009956E0188EE2E
:104F3000C80ED11CC6010E94F22710E000E0E82E46
:104F4000F12C0E151F0548F0DF91CF911F910F91A5
:104F5000FF90EF90DF90CF90089560E0C6010E942F
:104F60000628682FCE010E94F82661E0C6010E9443
:104F700016280F5F1F4FE5CFFC01428374836383C4
:104F80001182108208951F93CF93DF93EC01162FA7
:104F90000E942D28482F298130E0C90101966A819D
:104FA00070E00E943F3058815817190641F4842F51
:104FB0000E94302880E0DF91CF911F9108958B816E
:104FC0009C81280F391FF9011083898190E0019697
:104FD0006A8170E00E943F308983842F0E943028CC
:104FE00081E0E9CFCF93DF93EC010E942D289981D6
:104FF0002881921740F0C92FC21B0E9430288C2FA5
:10500000DF91CF910895CA819C0FF5CFFC0180817B
:10501000860F9927991F628170E00E943F3023819B
:105020003481280F391FF901808108951F93CF9390
:10503000DF93EC01162F0E942D28282F8881810FE5
:105040009927991F6A8170E00E943F308883822FE0
:10505000DF91CF911F910C9430288FB7F894089569
:105060008FBF0895089508950F931F93CF93DF93F3
:1050700000D000D000D00F92CDB7DEB78C01CE01AA
:1050800001960E948A2A81110BC027960FB6F894C8
:10509000DEBF0FBECDBFDF91CF911F910F9108955D
:1050A0008A810E9433259A819D839B819E839C8166
:1050B0009F8381110AC08981843079F0873069F03B
:1050C000863069F08530D9F681E0AE014B5F5F4FE5
:1050D000682FC8010E94E225D2CF83E0F6CF82E09C
:1050E000F4CFDF92EF92FF920F931F93CF93DF9352
:1050F00000D000D0CDB7DEB77B01142FD22E4A836B
:105100002B830C83842F0E943325811129C082E0D8
:10511000E816F10401F183E0E816F10439F0EA94AD
:10512000EF2869F485E0173F21F404C087E0073FCA
:1051300009F084E08983CE0101960E94852A0F90B0
:105140000F900F900F90DF91CF911F910F91FF90D3
:10515000EF90DF90089587EFD812EBCF86E0EACF8B
:1051600012951F701983E7CF0E94DD128AEF94E039
:105170000E94B12561E778E28AEF94E00E94FE2563
:1051800064E378E28AEF94E00E94022662E378E228
:105190008AEF94E00E94AD2563E378E28AEF94E021
:1051A0000C94A9259B014091EB054430C1F4FC010E
:1051B00091819F709093E90050E040E064E070E0DE
:1051C000C9010E944B2B81110BC09091E80095FD05
:1051D00007C09091E8009E779093E800089582E0E0
:1051E00008952091EB05243091F4FC0181818F70AA
:1051F0008093E9009091F3008091F200892B49F0AF
:105200008091E8008E778093E8000C94F92C82E07E
:10521000089580E00895FC018091EB05843059F4F5
:1052200091819F709093E9008091E80080FF03C016
:10523000CF010C94F12808959B014091EB05443077
:1052400011F080E00895FC0196819F709093E90031
:105250008091E80082FFF5CF8091E80085FFF1CFD3
:1052600050E040E064E070E0C9010E949A2B809118
:10527000E80085FD05C08091E8008B778093E80009
:1052800081E008958091260408959091EB05943073
:1052900031F580931B0470931D0460931C0482E01D
:1052A0008093E9008FEF9091E800815095FD06C052
:1052B00095ED9A95F1F700008111F5CF8091E80006
:1052C00085FF0DC050E040E063E070E08BE194E0CA
:1052D0000E944B2B8091E8008E778093E800089520
:1052E000BC0184E00C944529BC0183E00C94452961
:1052F000CF93DF93EC0181E08093E9008FEF9091F1
:10530000E800815095FD06C095ED9A95F1F70000F3
:105310008111F5CF8091E80085FF14C050E040E096
:1053200068E070E0CE010E944B2B8091E8008E7700
:105330008093E80088E0FE01AEE1B4E001900D92B8
:105340008A95E1F7DF91CF91089508958091EA055C
:10535000811109C00E942A2D0E94872D8091E200B0
:1053600084608093E20008951092EA0508950895FC
:105370000895089542E061EC81E00E94A62C42E28B
:1053800061EC82E00E94A62C42E361E883E00E9487
:10539000A62C42E361E884E00C94A62C8091ED05F4
:1053A000833009F45FC030F48130C1F1823009F4F8
:1053B0009BC008958A3009F487C08B3009F46DC012
:1053C000893009F04EC08091EC05813209F049C066
:1053D0008091F0059091F105029708F042C080910C
:1053E000E800877F8093E8008091E80082FF35C065
:1053F0009091F3008091F200029729F48091F100DE
:105400008B7F813021F48091F1008093260480917C
:10541000E8008B778093E8000C94DA2C8091EC05FF
:10542000813AF9F48091E800877F8093E8008091C9
:10543000F0059091F105892B61F468E08EE194E02C
:1054400070E00E94E92B8091E8008B778093E80060
:10545000089560E090E080E0F3CF8091EB0581114A
:10546000C3CF08958091EC05813AD9F78091F0057A
:105470009091F105892BA9F78091E800877F8093AF
:10548000E8008091E80080FFFCCF80915E0280936D
:10549000F1008091E8008E77BDCF8091EC058132DC
:1054A00001F78091F0059091F105892BD1F680915B
:1054B000E800877F8093E8000E94DA2C8091EE0557
:1054C00080935E020C94D8078091EC05813249F6F6
:1054D0008091E800877F8093E8000E94DA2C809119
:1054E000EF058093270408958091EC05813A09F037
:1054F000B8CF8091E800877F8093E8008091E80032
:1055000080FFFCCF80912704C2CFBC0188E492E0E9
:105510000C94D228BC0188E492E00C941C290E94CF
:10552000B42884B7877F84BF0FB6F894A89580917C
:105530006000886180936000109260000FBE80E878
:1055400090E00FB6F89480936100909361000FBED5
:105550000C947A0E0E942A2D0E94872DE2EEF0E034
:1055600080818460808378940E9410300E948E0E27
:1055700084E592E00C9474238091EB05853031F43E
:105580008091EB05853041F00E945E240E94940ECC
:1055900088E492E00C940B290E9414248091E90580
:1055A000882371F30E944624882351F30E94352BEF
:1055B0000E94D807E5CF0C94DD2A292F332723300A
:1055C000310519F168F42130310509F444C0223065
:1055D000310509F445C090E080E030E020E025C0CE
:1055E0002132310549F122323105A9F780E490E0FA
:1055F00023E434E061157105C1F082E390E021E11C
:1056000034E06130710589F0E6CF9927813091054A
:1056100081F0009729F00297F1F6ECE2F3E002C086
:10562000ECE5F3E0849190E09F01FA01318320835F
:105630000895E2E4F3E0F6CF89E090E022E733E07A
:105640006115710591F389E090E02BE833E061305A
:10565000710559F3C0CF82E190E02FEF33E0E5CF41
:105660008FE990E020E633E0E0CF80E189BD82E180
:1056700089BD09B400FEFDCF8091D8008F7D809355
:10568000D8008091E00082608093E0008091E0008B
:1056900081FDFCCF0895AF92BF92CF92DF92FF922F
:1056A0000F931F93CF93DF936C01EB018A010E944C
:1056B000F92CF82E811123C00115110539F0F801DC
:1056C00080819181C81BD90BC80ED91EB12CA12C89
:1056D0002097A9F08091E80085FD22C08091E80024
:1056E0008E778093E80001151105A1F0F801808103
:1056F0009181A80EB91EB182A08285E0F82E8F2D6F
:10570000DF91CF911F910F91FF90DF90CF90BF90CD
:10571000AF9008950E94F92C8823D1F2F82EEFCF94
:10572000F60181916F018093F1002197FFEFAF1A8D
:10573000BF0ACECFAF92BF92CF92DF92FF920F936C
:105740001F93CF93DF936C01EB018A010E94F92C28
:10575000F82E811123C00115110539F0F80180815F
:105760009181C81BD90BC80ED91EB12CA12C209732
:10577000A9F08091E80085FD22C08091E8008B7738
:105780008093E80001151105A1F0F8018081918155
:10579000A80EB91EB182A08285E0F82E8F2DDF9170
:1057A000CF911F910F91FF90DF90CF90BF90AF905E
:1057B00008950E94F92C8823D1F2F82EEFCF809122
:1057C000F100F60181936F012197FFEFAF1ABF0A35
:1057D000CECFFC018091F2059091F30586179707D3
:1057E000A0F06115710529F49091E8009E779093DF
:1057F000E80090E06115710551F4911108C08091A5
:10580000E80082FF34C080E00895BC01F2CF8091AF
:10581000EB058823C1F18530C1F18091E80083FD5B
:1058200030C08091E80082FDEACF8091E80080FFDF
:10583000E1CF8091F3002091F200382F61157105BE
:1058400019F02830310558F091E02830310509F081
:1058500090E02091E8002E772093E800CBCF819153
:105860008093F100615071092F5F3F4FE7CF809126
:10587000EB05882341F0853041F08091E80083FFFB
:10588000BECF81E0089582E0089583E00895FC0191
:105890008091F2059091F30586179707A0F06115A6
:1058A000710529F48091E8008E778093E80090E0FC
:1058B0006115710551F4911108C08091E80082FFD3
:1058C00035C080E00895BC01F2CF8091EB058823BC
:1058D000C9F18530C9F18091E80083FD31C0809124
:1058E000E80082FDEACF8091E80080FFE1CF80915F
:1058F000F3002091F200382F6115710519F028305E
:10590000310558F091E02830310509F090E08091A0
:10591000E8008E778093E800CBCF84918093F100EC
:105920003196615071092F5F3F4FE6CF8091EB05B3
:10593000882341F0853041F08091E80083FFBDCF9E
:1059400081E0089582E0089583E00895982F9730CC
:1059500028F08F708093E90081E008959093E9002A
:10596000242F762F50E0981731F07091EC002091A1
:10597000ED005091F00021FD02C09F5FE8CF309113
:10598000EB003E7F3093EB003091ED003D7F309394
:10599000ED003091EB0031603093EB007093EC0040
:1059A0002093ED005093F0002091EE0027FDE5CF0D
:1059B00080E008958091EC0587FF13C08091E80096
:1059C00082FF06C08091E8008B778093E80004C0D6
:1059D0008091EB058111F2CF08958091EB0588232A
:1059E000D9F38091E80080FFF8CF8091E8008E77AE
:1059F000ECCF2091E4003091E50095E6A9012091DB
:105A0000EC00822F817020FF06C08091E80080FFAB
:105A100006C080E008952091E80022FD1AC0809120
:105A2000EB05882389F0853089F08091EB0085FDB6
:105A30000FC02091E4003091E50042175307F9F2BE
:105A40009150E1F684E0089582E0089583E008959E
:105A500081E008950E94982D0E94A02DE0EEF0E0D4
:105A6000808181608083E8EDF0E080818F778083A2
:105A700019BCA7EDB0E08C918E7F8C9380818F7ED6
:105A800080831092EA0508950F931F93CF93DF93BD
:105A90000E94982D0E94A02DC8EDD0E088818F77BC
:105AA000888388818068888388818F7D888319BCFA
:105AB0001092EB051092E7051092E9051092E805A7
:105AC00000EE10E0F80180818B7F80838881816007
:105AD000888342E060E080E00E94A62CE1EEF0E0E6
